:030000000208A053
:0C08A000787FE4F6D8FD7581070208009F
:10080000C292C291C290C295C294C293C2A5C2A420
:10081000C2A3C2A2C2A1C2A0D290C291C292D293DC
:10082000C294C295C2A3C2A4D2A5C2A0D2A11208EA
:100830007AD290C291C292C293D294C295D2A3C2EC
:10084000A4C2A5C2A0C2A1D2A212087CC290D29119
:10085000C292C293C294D295D2A3C2A4120874C207
:1008600090C291D292D293C294C295C2A3D2A41242
:04087000087480A4E4
:0C087400C2A5D2A0C2A1C2A27FBC7E021D
:10088000E4FDFCC3ED9FEC9E5015E4FBFA0BBB00AE
:0F089000010ABA04F8BBFBF50DBD00010C80E4B2
:01089F002236
:00000001FF
